{
  "contractName": "StarNotary",
  "abi": [
    {
      "inputs": [
        {
          "internalType": "string",
          "name": "name_",
          "type": "string"
        },
        {
          "internalType": "string",
          "name": "symbol_",
          "type": "string"
        }
      ],
      "stateMutability": "nonpayable",
      "type": "constructor"
    },
    {
      "anonymous": false,
      "inputs": [
        {
          "indexed": true,
          "internalType": "address",
          "name": "owner",
          "type": "address"
        },
        {
          "indexed": true,
          "internalType": "address",
          "name": "approved",
          "type": "address"
        },
        {
          "indexed": true,
          "internalType": "uint256",
          "name": "tokenId",
          "type": "uint256"
        }
      ],
      "name": "Approval",
      "type": "event"
    },
    {
      "anonymous": false,
      "inputs": [
        {
          "indexed": true,
          "internalType": "address",
          "name": "owner",
          "type": "address"
        },
        {
          "indexed": true,
          "internalType": "address",
          "name": "operator",
          "type": "address"
        },
        {
          "indexed": false,
          "internalType": "bool",
          "name": "approved",
          "type": "bool"
        }
      ],
      "name": "ApprovalForAll",
      "type": "event"
    },
    {
      "anonymous": false,
      "inputs": [
        {
          "indexed": true,
          "internalType": "address",
          "name": "from",
          "type": "address"
        },
        {
          "indexed": true,
          "internalType": "address",
          "name": "to",
          "type": "address"
        },
        {
          "indexed": true,
          "internalType": "uint256",
          "name": "tokenId",
          "type": "uint256"
        }
      ],
      "name": "Transfer",
      "type": "event"
    },
    {
      "inputs": [
        {
          "internalType": "address",
          "name": "to",
          "type": "address"
        },
        {
          "internalType": "uint256",
          "name": "tokenId",
          "type": "uint256"
        }
      ],
      "name": "approve",
      "outputs": [],
      "stateMutability": "nonpayable",
      "type": "function"
    },
    {
      "inputs": [
        {
          "internalType": "address",
          "name": "owner",
          "type": "address"
        }
      ],
      "name": "balanceOf",
      "outputs": [
        {
          "internalType": "uint256",
          "name": "",
          "type": "uint256"
        }
      ],
      "stateMutability": "view",
      "type": "function",
      "constant": true
    },
    {
      "inputs": [
        {
          "internalType": "uint256",
          "name": "tokenId",
          "type": "uint256"
        }
      ],
      "name": "getApproved",
      "outputs": [
        {
          "internalType": "address",
          "name": "",
          "type": "address"
        }
      ],
      "stateMutability": "view",
      "type": "function",
      "constant": true
    },
    {
      "inputs": [
        {
          "internalType": "address",
          "name": "owner",
          "type": "address"
        },
        {
          "internalType": "address",
          "name": "operator",
          "type": "address"
        }
      ],
      "name": "isApprovedForAll",
      "outputs": [
        {
          "internalType": "bool",
          "name": "",
          "type": "bool"
        }
      ],
      "stateMutability": "view",
      "type": "function",
      "constant": true
    },
    {
      "inputs": [],
      "name": "name",
      "outputs": [
        {
          "internalType": "string",
          "name": "",
          "type": "string"
        }
      ],
      "stateMutability": "view",
      "type": "function",
      "constant": true
    },
    {
      "inputs": [
        {
          "internalType": "uint256",
          "name": "tokenId",
          "type": "uint256"
        }
      ],
      "name": "ownerOf",
      "outputs": [
        {
          "internalType": "address",
          "name": "",
          "type": "address"
        }
      ],
      "stateMutability": "view",
      "type": "function",
      "constant": true
    },
    {
      "inputs": [
        {
          "internalType": "address",
          "name": "from",
          "type": "address"
        },
        {
          "internalType": "address",
          "name": "to",
          "type": "address"
        },
        {
          "internalType": "uint256",
          "name": "tokenId",
          "type": "uint256"
        }
      ],
      "name": "safeTransferFrom",
      "outputs": [],
      "stateMutability": "nonpayable",
      "type": "function"
    },
    {
      "inputs": [
        {
          "internalType": "address",
          "name": "from",
          "type": "address"
        },
        {
          "internalType": "address",
          "name": "to",
          "type": "address"
        },
        {
          "internalType": "uint256",
          "name": "tokenId",
          "type": "uint256"
        },
        {
          "internalType": "bytes",
          "name": "_data",
          "type": "bytes"
        }
      ],
      "name": "safeTransferFrom",
      "outputs": [],
      "stateMutability": "nonpayable",
      "type": "function"
    },
    {
      "inputs": [
        {
          "internalType": "address",
          "name": "operator",
          "type": "address"
        },
        {
          "internalType": "bool",
          "name": "approved",
          "type": "bool"
        }
      ],
      "name": "setApprovalForAll",
      "outputs": [],
      "stateMutability": "nonpayable",
      "type": "function"
    },
    {
      "inputs": [
        {
          "internalType": "uint256",
          "name": "",
          "type": "uint256"
        }
      ],
      "name": "starsForSale",
      "outputs": [
        {
          "internalType": "uint256",
          "name": "",
          "type": "uint256"
        }
      ],
      "stateMutability": "view",
      "type": "function",
      "constant": true
    },
    {
      "inputs": [
        {
          "internalType": "bytes4",
          "name": "interfaceId",
          "type": "bytes4"
        }
      ],
      "name": "supportsInterface",
      "outputs": [
        {
          "internalType": "bool",
          "name": "",
          "type": "bool"
        }
      ],
      "stateMutability": "view",
      "type": "function",
      "constant": true
    },
    {
      "inputs": [],
      "name": "symbol",
      "outputs": [
        {
          "internalType": "string",
          "name": "",
          "type": "string"
        }
      ],
      "stateMutability": "view",
      "type": "function",
      "constant": true
    },
    {
      "inputs": [
        {
          "internalType": "uint256",
          "name": "",
          "type": "uint256"
        }
      ],
      "name": "tokenIdToStarInfo",
      "outputs": [
        {
          "internalType": "string",
          "name": "name",
          "type": "string"
        }
      ],
      "stateMutability": "view",
      "type": "function",
      "constant": true
    },
    {
      "inputs": [
        {
          "internalType": "uint256",
          "name": "tokenId",
          "type": "uint256"
        }
      ],
      "name": "tokenURI",
      "outputs": [
        {
          "internalType": "string",
          "name": "",
          "type": "string"
        }
      ],
      "stateMutability": "view",
      "type": "function",
      "constant": true
    },
    {
      "inputs": [
        {
          "internalType": "address",
          "name": "from",
          "type": "address"
        },
        {
          "internalType": "address",
          "name": "to",
          "type": "address"
        },
        {
          "internalType": "uint256",
          "name": "tokenId",
          "type": "uint256"
        }
      ],
      "name": "transferFrom",
      "outputs": [],
      "stateMutability": "nonpayable",
      "type": "function"
    },
    {
      "inputs": [
        {
          "internalType": "string",
          "name": "_name",
          "type": "string"
        },
        {
          "internalType": "uint256",
          "name": "_tokenId",
          "type": "uint256"
        }
      ],
      "name": "createStar",
      "outputs": [],
      "stateMutability": "nonpayable",
      "type": "function"
    },
    {
      "inputs": [
        {
          "internalType": "uint256",
          "name": "_tokenId",
          "type": "uint256"
        },
        {
          "internalType": "uint256",
          "name": "_price",
          "type": "uint256"
        }
      ],
      "name": "putStarUpForSale",
      "outputs": [],
      "stateMutability": "nonpayable",
      "type": "function"
    },
    {
      "inputs": [
        {
          "internalType": "uint256",
          "name": "_tokenId",
          "type": "uint256"
        }
      ],
      "name": "buyStar",
      "outputs": [],
      "stateMutability": "payable",
      "type": "function",
      "payable": true
    },
    {
      "inputs": [
        {
          "internalType": "uint256",
          "name": "_tokenId",
          "type": "uint256"
        }
      ],
      "name": "lookUptokenIdToStarInfo",
      "outputs": [
        {
          "internalType": "string",
          "name": "",
          "type": "string"
        }
      ],
      "stateMutability": "view",
      "type": "function",
      "constant": true
    },
    {
      "inputs": [
        {
          "internalType": "uint256",
          "name": "_tokenId1",
          "type": "uint256"
        },
        {
          "internalType": "uint256",
          "name": "_tokenId2",
          "type": "uint256"
        }
      ],
      "name": "exchangeStars",
      "outputs": [],
      "stateMutability": "nonpayable",
      "type": "function"
    },
    {
      "inputs": [
        {
          "internalType": "address",
          "name": "_to",
          "type": "address"
        },
        {
          "internalType": "uint256",
          "name": "_tokenId",
          "type": "uint256"
        }
      ],
      "name": "transferStar",
      "outputs": [],
      "stateMutability": "nonpayable",
      "type": "function"
    }
  ],
  "bytecode": "0x60806040523480156200001157600080fd5b506040516200365e3803806200365e8339818101604052810190620000379190620002c2565b818181600090805190602001906200005192919062000075565b5080600190805190602001906200006a92919062000075565b5050505050620003ab565b828054620000839062000376565b90600052602060002090601f016020900481019282620000a75760008555620000f3565b82601f10620000c257805160ff1916838001178555620000f3565b82800160010185558215620000f3579182015b82811115620000f2578251825591602001919060010190620000d5565b5b50905062000102919062000106565b5090565b5b808211156200012157600081600090555060010162000107565b5090565b6000604051905090565b600080fd5b600080fd5b600080fd5b600080fd5b6000601f19601f8301169050919050565b7f4e487b7100000000000000000000000000000000000000000000000000000000600052604160045260246000fd5b6200018e8262000143565b810181811067ffffffffffffffff82111715620001b057620001af62000154565b5b80604052505050565b6000620001c562000125565b9050620001d3828262000183565b919050565b600067ffffffffffffffff821115620001f657620001f562000154565b5b620002018262000143565b9050602081019050919050565b60005b838110156200022e57808201518184015260208101905062000211565b838111156200023e576000848401525b50505050565b60006200025b6200025584620001d8565b620001b9565b9050828152602081018484840111156200027a57620002796200013e565b5b620002878482856200020e565b509392505050565b600082601f830112620002a757620002a662000139565b5b8151620002b984826020860162000244565b91505092915050565b60008060408385031215620002dc57620002db6200012f565b5b600083015167ffffffffffffffff811115620002fd57620002fc62000134565b5b6200030b858286016200028f565b925050602083015167ffffffffffffffff8111156200032f576200032e62000134565b5b6200033d858286016200028f565b9150509250929050565b7f4e487b7100000000000000000000000000000000000000000000000000000000600052602260045260246000fd5b600060028204905060018216806200038f57607f821691505b602082108103620003a557620003a462000347565b5b50919050565b6132a380620003bb6000396000f3fe60806040526004361061012a5760003560e01c806342842e0e116100ab578063a22cb4651161006f578063a22cb46514610405578063b88d4fde1461042e578063c87b56dd14610457578063d7830ccb14610494578063e7152a5c146104d1578063e985e9c5146104fa5761012a565b806342842e0e1461030e5780636352211e1461033757806370a082311461037457806395d89b41146103b15780639697c0a1146103dc5761012a565b806315e0afa5116100f257806315e0afa51461023a5780631967fd981461026357806323b872dd146102a05780632f1c34ef146102c9578063316a4361146102e55761012a565b806301ffc9a71461012f5780630564b1301461016c57806306fdde03146101a9578063081812fc146101d4578063095ea7b314610211575b600080fd5b34801561013b57600080fd5b5061015660048036038101906101519190611e5d565b610537565b6040516101639190611ea5565b60405180910390f35b34801561017857600080fd5b50610193600480360381019061018e9190611ef6565b610619565b6040516101a09190611f32565b60405180910390f35b3480156101b557600080fd5b506101be610631565b6040516101cb9190611fe6565b60405180910390f35b3480156101e057600080fd5b506101fb60048036038101906101f69190611ef6565b6106c3565b6040516102089190612049565b60405180910390f35b34801561021d57600080fd5b5061023860048036038101906102339190612090565b610748565b005b34801561024657600080fd5b50610261600480360381019061025c91906120d0565b61085f565b005b34801561026f57600080fd5b5061028a60048036038101906102859190611ef6565b610939565b6040516102979190611fe6565b60405180910390f35b3480156102ac57600080fd5b506102c760048036038101906102c29190612110565b6109df565b005b6102e360048036038101906102de9190611ef6565b610a3f565b005b3480156102f157600080fd5b5061030c600480360381019061030791906120d0565b610bc5565b005b34801561031a57600080fd5b5061033560048036038101906103309190612110565b610c57565b005b34801561034357600080fd5b5061035e60048036038101906103599190611ef6565b610c77565b60405161036b9190612049565b60405180910390f35b34801561038057600080fd5b5061039b60048036038101906103969190612163565b610d28565b6040516103a89190611f32565b60405180910390f35b3480156103bd57600080fd5b506103c6610ddf565b6040516103d39190611fe6565b60405180910390f35b3480156103e857600080fd5b5061040360048036038101906103fe91906122c5565b610e71565b005b34801561041157600080fd5b5061042c6004803603810190610427919061234d565b610ec7565b005b34801561043a57600080fd5b506104556004803603810190610450919061242e565b610edd565b005b34801561046357600080fd5b5061047e60048036038101906104799190611ef6565b610f3f565b60405161048b9190611fe6565b60405180910390f35b3480156104a057600080fd5b506104bb60048036038101906104b69190611ef6565b610fe6565b6040516104c89190611fe6565b60405180910390f35b3480156104dd57600080fd5b506104f860048036038101906104f39190612090565b61108e565b005b34801561050657600080fd5b50610521600480360381019061051c91906124b1565b611113565b60405161052e9190611ea5565b60405180910390f35b60007f80ac58cd000000000000000000000000000000000000000000000000000000007bffffffffffffffffffffffffffffffffffffffffffffffffffffffff1916827bffffffffffffffffffffffffffffffffffffffffffffffffffffffff1916148061060257507f5b5e139f000000000000000000000000000000000000000000000000000000007bffffffffffffffffffffffffffffffffffffffffffffffffffffffff1916827bffffffffffffffffffffffffffffffffffffffffffffffffffffffff1916145b806106125750610611826111a7565b5b9050919050565b60076020528060005260406000206000915090505481565b60606000805461064090612520565b80601f016020809104026020016040519081016040528092919081815260200182805461066c90612520565b80156106b95780601f1061068e576101008083540402835291602001916106b9565b820191906000526020600020905b81548152906001019060200180831161069c57829003601f168201915b5050505050905090565b60006106ce82611211565b61070d576040517f08c379a0000000000000000000000000000000000000000000000000000000008152600401610704906125c3565b60405180910390fd5b6004600083815260200190815260200160002060009054906101000a900473ffffffffffffffffffffffffffffffffffffffff169050919050565b600061075382610c77565b90508073ffffffffffffffffffffffffffffffffffffffff168373ffffffffffffffffffffffffffffffffffffffff16036107c3576040517f08c379a00000000000000000000000000000000000000000000000000000000081526004016107ba90612655565b60405180910390fd5b8073ffffffffffffffffffffffffffffffffffffffff166107e261127d565b73ffffffffffffffffffffffffffffffffffffffff16148061081157506108108161080b61127d565b611113565b5b610850576040517f08c379a0000000000000000000000000000000000000000000000000000000008152600401610847906126e7565b60405180910390fd5b61085a8383611285565b505050565b600061086a83610c77565b9050600061087783610c77565b90503373ffffffffffffffffffffffffffffffffffffffff168273ffffffffffffffffffffffffffffffffffffffff1614806108de57503373ffffffffffffffffffffffffffffffffffffffff168173ffffffffffffffffffffffffffffffffffffffff16145b61091d576040517f08c379a000000000000000000000000000000000000000000000000000000000815260040161091490612779565b60405180910390fd5b61092882828661133e565b61093381838561133e565b50505050565b600660205280600052604060002060009150905080600001805461095c90612520565b80601f016020809104026020016040519081016040528092919081815260200182805461098890612520565b80156109d55780601f106109aa576101008083540402835291602001916109d5565b820191906000526020600020905b8154815290600101906020018083116109b857829003601f168201915b5050505050905081565b6109f06109ea61127d565b826115a4565b610a2f576040517f08c379a0000000000000000000000000000000000000000000000000000000008152600401610a269061280b565b60405180910390fd5b610a3a83838361133e565b505050565b6000600760008381526020019081526020016000205411610a95576040517f08c379a0000000000000000000000000000000000000000000000000000000008152600401610a8c90612877565b60405180910390fd5b600060076000838152602001908152602001600020549050803411610aef576040517f08c379a0000000000000000000000000000000000000000000000000000000008152600401610ae6906128e3565b60405180910390fd5b6000610afa83610c77565b9050610b0781338561133e565b8073ffffffffffffffffffffffffffffffffffffffff166108fc839081150290604051600060405180830381858888f19350505050158015610b4d573d6000803e3d6000fd5b5081341115610ba9573373ffffffffffffffffffffffffffffffffffffffff166108fc8334610b7c9190612932565b9081150290604051600060405180830381858888f19350505050158015610ba7573d6000803e3d6000fd5b505b6007600084815260200190815260200160002060009055505050565b3373ffffffffffffffffffffffffffffffffffffffff16610be583610c77565b73ffffffffffffffffffffffffffffffffffffffff1614610c3b576040517f08c379a0000000000000000000000000000000000000000000000000000000008152600401610c32906129d8565b60405180910390fd5b8060076000848152602001908152602001600020819055505050565b610c7283838360405180602001604052806000815250610edd565b505050565b6000806002600084815260200190815260200160002060009054906101000a900473ffffffffffffffffffffffffffffffffffffffff169050600073ffffffffffffffffffffffffffffffffffffffff168173ffffffffffffffffffffffffffffffffffffffff1603610d1f576040517f08c379a0000000000000000000000000000000000000000000000000000000008152600401610d1690612a6a565b60405180910390fd5b80915050919050565b60008073ffffffffffffffffffffffffffffffffffffffff168273ffffffffffffffffffffffffffffffffffffffff1603610d98576040517f08c379a0000000000000000000000000000000000000000000000000000000008152600401610d8f90612afc565b60405180910390fd5b600360008373ffffffffffffffffffffffffffffffffffffffff1673ffffffffffffffffffffffffffffffffffffffff168152602001908152602001600020549050919050565b606060018054610dee90612520565b80601f0160208091040260200160405190810160405280929190818152602001828054610e1a90612520565b8015610e675780601f10610e3c57610100808354040283529160200191610e67565b820191906000526020600020905b815481529060010190602001808311610e4a57829003601f168201915b5050505050905090565b6000604051806020016040528084815250905080600660008481526020019081526020016000206000820151816000019080519060200190610eb4929190611d4e565b50905050610ec23383611682565b505050565b610ed9610ed261127d565b838361185b565b5050565b610eee610ee861127d565b836115a4565b610f2d576040517f08c379a0000000000000000000000000000000000000000000000000000000008152600401610f249061280b565b60405180910390fd5b610f39848484846119c7565b50505050565b6060610f4a82611211565b610f89576040517f08c379a0000000000000000000000000000000000000000000000000000000008152600401610f8090612b8e565b60405180910390fd5b6000610f93611a23565b90506000815111610fb35760405180602001604052806000815250610fde565b80610fbd84611a3a565b604051602001610fce929190612bea565b6040516020818303038152906040525b915050919050565b606060066000838152602001908152602001600020600001805461100990612520565b80601f016020809104026020016040519081016040528092919081815260200182805461103590612520565b80156110825780601f1061105757610100808354040283529160200191611082565b820191906000526020600020905b81548152906001019060200180831161106557829003601f168201915b50505050509050919050565b3373ffffffffffffffffffffffffffffffffffffffff166110ae82610c77565b73ffffffffffffffffffffffffffffffffffffffff1614611104576040517f08c379a00000000000000000000000000000000000000000000000000000000081526004016110fb90612c80565b60405180910390fd5b61110f3383836109df565b5050565b6000600560008473ffffffffffffffffffffffffffffffffffffffff1673ffffffffffffffffffffffffffffffffffffffff16815260200190815260200160002060008373ffffffffffffffffffffffffffffffffffffffff1673ffffffffffffffffffffffffffffffffffffffff16815260200190815260200160002060009054906101000a900460ff16905092915050565b60007f01ffc9a7000000000000000000000000000000000000000000000000000000007bffffffffffffffffffffffffffffffffffffffffffffffffffffffff1916827bffffffffffffffffffffffffffffffffffffffffffffffffffffffff1916149050919050565b60008073ffffffffffffffffffffffffffffffffffffffff166002600084815260200190815260200160002060009054906101000a900473ffffffffffffffffffffffffffffffffffffffff1673ffffffffffffffffffffffffffffffffffffffff1614159050919050565b600033905090565b816004600083815260200190815260200160002060006101000a81548173ffffffffffffffffffffffffffffffffffffffff021916908373ffffffffffffffffffffffffffffffffffffffff160217905550808273ffffffffffffffffffffffffffffffffffffffff166112f883610c77565b73ffffffffffffffffffffffffffffffffffffffff167f8c5be1e5ebec7d5bd14f71427d1e84f3dd0314c0f7b2291e5b200ac8c7c3b92560405160405180910390a45050565b8273ffffffffffffffffffffffffffffffffffffffff1661135e82610c77565b73ffffffffffffffffffffffffffffffffffffffff16146113b4576040517f08c379a00000000000000000000000000000000000000000000000000000000081526004016113ab90612d12565b60405180910390fd5b600073ffffffffffffffffffffffffffffffffffffffff168273ffffffffffffffffffffffffffffffffffffffff1603611423576040517f08c379a000000000000000000000000000000000000000000000000000000000815260040161141a90612da4565b60405180910390fd5b61142e838383611b9a565b611439600082611285565b6001600360008573ffffffffffffffffffffffffffffffffffffffff1673ffffffffffffffffffffffffffffffffffffffff16815260200190815260200160002060008282546114899190612932565b925050819055506001600360008473ffffffffffffffffffffffffffffffffffffffff1673ffffffffffffffffffffffffffffffffffffffff16815260200190815260200160002060008282546114e09190612dc4565b92505081905550816002600083815260200190815260200160002060006101000a81548173ffffffffffffffffffffffffffffffffffffffff021916908373ffffffffffffffffffffffffffffffffffffffff160217905550808273ffffffffffffffffffffffffffffffffffffffff168473ffffffffffffffffffffffffffffffffffffffff167fddf252ad1be2c89b69c2b068fc378daa952ba7f163c4a11628f55a4df523b3ef60405160405180910390a461159f838383611b9f565b505050565b60006115af82611211565b6115ee576040517f08c379a00000000000000000000000000000000000000000000000000000000081526004016115e590612e8c565b60405180910390fd5b60006115f983610c77565b90508073ffffffffffffffffffffffffffffffffffffffff168473ffffffffffffffffffffffffffffffffffffffff16148061163b575061163a8185611113565b5b8061167957508373ffffffffffffffffffffffffffffffffffffffff16611661846106c3565b73ffffffffffffffffffffffffffffffffffffffff16145b91505092915050565b600073ffffffffffffffffffffffffffffffffffffffff168273ffffffffffffffffffffffffffffffffffffffff16036116f1576040517f08c379a00000000000000000000000000000000000000000000000000000000081526004016116e890612ef8565b60405180910390fd5b6116fa81611211565b1561173a576040517f08c379a000000000000000000000000000000000000000000000000000000000815260040161173190612f64565b60405180910390fd5b61174660008383611b9a565b6001600360008473ffffffffffffffffffffffffffffffffffffffff1673ffffffffffffffffffffffffffffffffffffffff16815260200190815260200160002060008282546117969190612dc4565b92505081905550816002600083815260200190815260200160002060006101000a81548173ffffffffffffffffffffffffffffffffffffffff021916908373ffffffffffffffffffffffffffffffffffffffff160217905550808273ffffffffffffffffffffffffffffffffffffffff16600073ffffffffffffffffffffffffffffffffffffffff167fddf252ad1be2c89b69c2b068fc378daa952ba7f163c4a11628f55a4df523b3ef60405160405180910390a461185760008383611b9f565b5050565b8173ffffffffffffffffffffffffffffffffffffffff168373ffffffffffffffffffffffffffffffffffffffff16036118c9576040517f08c379a00000000000000000000000000000000000000000000000000000000081526004016118c090612fd0565b60405180910390fd5b80600560008573ffffffffffffffffffffffffffffffffffffffff1673ffffffffffffffffffffffffffffffffffffffff16815260200190815260200160002060008473ffffffffffffffffffffffffffffffffffffffff1673ffffffffffffffffffffffffffffffffffffffff16815260200190815260200160002060006101000a81548160ff0219169083151502179055508173ffffffffffffffffffffffffffffffffffffffff168373ffffffffffffffffffffffffffffffffffffffff167f17307eab39ab6107e8899845ad3d59bd9653f200f220920489ca2b5937696c31836040516119ba9190611ea5565b60405180910390a3505050565b6119d284848461133e565b6119de84848484611ba4565b611a1d576040517f08c379a0000000000000000000000000000000000000000000000000000000008152600401611a1490613062565b60405180910390fd5b50505050565b606060405180602001604052806000815250905090565b606060008203611a81576040518060400160405280600181526020017f30000000000000000000000000000000000000000000000000000000000000008152509050611b95565b600082905060005b60008214611ab3578080611a9c90613082565b915050600a82611aac91906130f9565b9150611a89565b60008167ffffffffffffffff811115611acf57611ace61219a565b5b6040519080825280601f01601f191660200182016040528015611b015781602001600182028036833780820191505090505b5090505b60008514611b8e57600182611b1a9190612932565b9150600a85611b29919061312a565b6030611b359190612dc4565b60f81b818381518110611b4b57611b4a61315b565b5b60200101907effffffffffffffffffffffffffffffffffffffffffffffffffffffffffffff1916908160001a905350600a85611b8791906130f9565b9450611b05565b8093505050505b919050565b505050565b505050565b6000611bc58473ffffffffffffffffffffffffffffffffffffffff16611d2b565b15611d1e578373ffffffffffffffffffffffffffffffffffffffff1663150b7a02611bee61127d565b8786866040518563ffffffff1660e01b8152600401611c1094939291906131df565b6020604051808303816000875af1925050508015611c4c57506040513d601f19601f82011682018060405250810190611c499190613240565b60015b611cce573d8060008114611c7c576040519150601f19603f3d011682016040523d82523d6000602084013e611c81565b606091505b506000815103611cc6576040517f08c379a0000000000000000000000000000000000000000000000000000000008152600401611cbd90613062565b60405180910390fd5b805181602001fd5b63150b7a0260e01b7bffffffffffffffffffffffffffffffffffffffffffffffffffffffff1916817bffffffffffffffffffffffffffffffffffffffffffffffffffffffff191614915050611d23565b600190505b949350505050565b6000808273ffffffffffffffffffffffffffffffffffffffff163b119050919050565b828054611d5a90612520565b90600052602060002090601f016020900481019282611d7c5760008555611dc3565b82601f10611d9557805160ff1916838001178555611dc3565b82800160010185558215611dc3579182015b82811115611dc2578251825591602001919060010190611da7565b5b509050611dd09190611dd4565b5090565b5b80821115611ded576000816000905550600101611dd5565b5090565b6000604051905090565b600080fd5b600080fd5b60007fffffffff0000000000000000000000000000000000000000000000000000000082169050919050565b611e3a81611e05565b8114611e4557600080fd5b50565b600081359050611e5781611e31565b92915050565b600060208284031215611e7357611e72611dfb565b5b6000611e8184828501611e48565b91505092915050565b60008115159050919050565b611e9f81611e8a565b82525050565b6000602082019050611eba6000830184611e96565b92915050565b6000819050919050565b611ed381611ec0565b8114611ede57600080fd5b50565b600081359050611ef081611eca565b92915050565b600060208284031215611f0c57611f0b611dfb565b5b6000611f1a84828501611ee1565b91505092915050565b611f2c81611ec0565b82525050565b6000602082019050611f476000830184611f23565b92915050565b600081519050919050565b600082825260208201905092915050565b60005b83811015611f87578082015181840152602081019050611f6c565b83811115611f96576000848401525b50505050565b6000601f19601f8301169050919050565b6000611fb882611f4d565b611fc28185611f58565b9350611fd2818560208601611f69565b611fdb81611f9c565b840191505092915050565b600060208201905081810360008301526120008184611fad565b905092915050565b600073ffffffffffffffffffffffffffffffffffffffff82169050919050565b600061203382612008565b9050919050565b61204381612028565b82525050565b600060208201905061205e600083018461203a565b92915050565b61206d81612028565b811461207857600080fd5b50565b60008135905061208a81612064565b92915050565b600080604083850312156120a7576120a6611dfb565b5b60006120b58582860161207b565b92505060206120c685828601611ee1565b9150509250929050565b600080604083850312156120e7576120e6611dfb565b5b60006120f585828601611ee1565b925050602061210685828601611ee1565b9150509250929050565b60008060006060848603121561212957612128611dfb565b5b60006121378682870161207b565b93505060206121488682870161207b565b925050604061215986828701611ee1565b9150509250925092565b60006020828403121561217957612178611dfb565b5b60006121878482850161207b565b91505092915050565b600080fd5b600080fd5b7f4e487b7100000000000000000000000000000000000000000000000000000000600052604160045260246000fd5b6121d282611f9c565b810181811067ffffffffffffffff821117156121f1576121f061219a565b5b80604052505050565b6000612204611df1565b905061221082826121c9565b919050565b600067ffffffffffffffff8211156122305761222f61219a565b5b61223982611f9c565b9050602081019050919050565b82818337600083830152505050565b600061226861226384612215565b6121fa565b90508281526020810184848401111561228457612283612195565b5b61228f848285612246565b509392505050565b600082601f8301126122ac576122ab612190565b5b81356122bc848260208601612255565b91505092915050565b600080604083850312156122dc576122db611dfb565b5b600083013567ffffffffffffffff8111156122fa576122f9611e00565b5b61230685828601612297565b925050602061231785828601611ee1565b9150509250929050565b61232a81611e8a565b811461233557600080fd5b50565b60008135905061234781612321565b92915050565b6000806040838503121561236457612363611dfb565b5b60006123728582860161207b565b925050602061238385828601612338565b9150509250929050565b600067ffffffffffffffff8211156123a8576123a761219a565b5b6123b182611f9c565b9050602081019050919050565b60006123d16123cc8461238d565b6121fa565b9050828152602081018484840111156123ed576123ec612195565b5b6123f8848285612246565b509392505050565b600082601f83011261241557612414612190565b5b81356124258482602086016123be565b91505092915050565b6000806000806080858703121561244857612447611dfb565b5b60006124568782880161207b565b94505060206124678782880161207b565b935050604061247887828801611ee1565b925050606085013567ffffffffffffffff81111561249957612498611e00565b5b6124a587828801612400565b91505092959194509250565b600080604083850312156124c8576124c7611dfb565b5b60006124d68582860161207b565b92505060206124e78582860161207b565b9150509250929050565b7f4e487b7100000000000000000000000000000000000000000000000000000000600052602260045260246000fd5b6000600282049050600182168061253857607f821691505b60208210810361254b5761254a6124f1565b5b50919050565b7f4552433732313a20617070726f76656420717565727920666f72206e6f6e657860008201527f697374656e7420746f6b656e0000000000000000000000000000000000000000602082015250565b60006125ad602c83611f58565b91506125b882612551565b604082019050919050565b600060208201905081810360008301526125dc816125a0565b9050919050565b7f4552433732313a20617070726f76616c20746f2063757272656e74206f776e6560008201527f7200000000000000000000000000000000000000000000000000000000000000602082015250565b600061263f602183611f58565b915061264a826125e3565b604082019050919050565b6000602082019050818103600083015261266e81612632565b9050919050565b7f4552433732313a20617070726f76652063616c6c6572206973206e6f74206f7760008201527f6e6572206e6f7220617070726f76656420666f7220616c6c0000000000000000602082015250565b60006126d1603883611f58565b91506126dc82612675565b604082019050919050565b60006020820190508181036000830152612700816126c4565b9050919050565b7f596f752063616e27742065786368616e676520746865205374617220796f752060008201527f646f6e2774206f776e6564000000000000000000000000000000000000000000602082015250565b6000612763602b83611f58565b915061276e82612707565b604082019050919050565b6000602082019050818103600083015261279281612756565b9050919050565b7f4552433732313a207472616e736665722063616c6c6572206973206e6f74206f60008201527f776e6572206e6f7220617070726f766564000000000000000000000000000000602082015250565b60006127f5603183611f58565b915061280082612799565b604082019050919050565b60006020820190508181036000830152612824816127e8565b9050919050565b7f54686520537461722073686f756c6420626520757020666f722073616c650000600082015250565b6000612861601e83611f58565b915061286c8261282b565b602082019050919050565b6000602082019050818103600083015261289081612854565b9050919050565b7f596f75206e65656420746f206861766520656e6f756768204574686572000000600082015250565b60006128cd601d83611f58565b91506128d882612897565b602082019050919050565b600060208201905081810360008301526128fc816128c0565b9050919050565b7f4e487b7100000000000000000000000000000000000000000000000000000000600052601160045260246000fd5b600061293d82611ec0565b915061294883611ec0565b92508282101561295b5761295a612903565b5b828203905092915050565b7f596f752063616e27742073656c6c20746865205374617220796f7520646f6e2760008201527f74206f776e000000000000000000000000000000000000000000000000000000602082015250565b60006129c2602583611f58565b91506129cd82612966565b604082019050919050565b600060208201905081810360008301526129f1816129b5565b9050919050565b7f4552433732313a206f776e657220717565727920666f72206e6f6e657869737460008201527f656e7420746f6b656e0000000000000000000000000000000000000000000000602082015250565b6000612a54602983611f58565b9150612a5f826129f8565b604082019050919050565b60006020820190508181036000830152612a8381612a47565b9050919050565b7f4552433732313a2062616c616e636520717565727920666f7220746865207a6560008201527f726f206164647265737300000000000000000000000000000000000000000000602082015250565b6000612ae6602a83611f58565b9150612af182612a8a565b604082019050919050565b60006020820190508181036000830152612b1581612ad9565b9050919050565b7f4552433732314d657461646174613a2055524920717565727920666f72206e6f60008201527f6e6578697374656e7420746f6b656e0000000000000000000000000000000000602082015250565b6000612b78602f83611f58565b9150612b8382612b1c565b604082019050919050565b60006020820190508181036000830152612ba781612b6b565b9050919050565b600081905092915050565b6000612bc482611f4d565b612bce8185612bae565b9350612bde818560208601611f69565b80840191505092915050565b6000612bf68285612bb9565b9150612c028284612bb9565b91508190509392505050565b7f596f752063616e2774207472616e7366657220746865205374617220796f752060008201527f646f6e2774206f776e0000000000000000000000000000000000000000000000602082015250565b6000612c6a602983611f58565b9150612c7582612c0e565b604082019050919050565b60006020820190508181036000830152612c9981612c5d565b9050919050565b7f4552433732313a207472616e736665722066726f6d20696e636f72726563742060008201527f6f776e6572000000000000000000000000000000000000000000000000000000602082015250565b6000612cfc602583611f58565b9150612d0782612ca0565b604082019050919050565b60006020820190508181036000830152612d2b81612cef565b9050919050565b7f4552433732313a207472616e7366657220746f20746865207a65726f2061646460008201527f7265737300000000000000000000000000000000000000000000000000000000602082015250565b6000612d8e602483611f58565b9150612d9982612d32565b604082019050919050565b60006020820190508181036000830152612dbd81612d81565b9050919050565b6000612dcf82611ec0565b9150612dda83611ec0565b9250827fffffffffffffffffffffffffffffffffffffffffffffffffffffffffffffffff03821115612e0f57612e0e612903565b5b828201905092915050565b7f4552433732313a206f70657261746f7220717565727920666f72206e6f6e657860008201527f697374656e7420746f6b656e0000000000000000000000000000000000000000602082015250565b6000612e76602c83611f58565b9150612e8182612e1a565b604082019050919050565b60006020820190508181036000830152612ea581612e69565b9050919050565b7f4552433732313a206d696e7420746f20746865207a65726f2061646472657373600082015250565b6000612ee2602083611f58565b9150612eed82612eac565b602082019050919050565b60006020820190508181036000830152612f1181612ed5565b9050919050565b7f4552433732313a20746f6b656e20616c7265616479206d696e74656400000000600082015250565b6000612f4e601c83611f58565b9150612f5982612f18565b602082019050919050565b60006020820190508181036000830152612f7d81612f41565b9050919050565b7f4552433732313a20617070726f766520746f2063616c6c657200000000000000600082015250565b6000612fba601983611f58565b9150612fc582612f84565b602082019050919050565b60006020820190508181036000830152612fe981612fad565b9050919050565b7f4552433732313a207472616e7366657220746f206e6f6e20455243373231526560008201527f63656976657220696d706c656d656e7465720000000000000000000000000000602082015250565b600061304c603283611f58565b915061305782612ff0565b604082019050919050565b6000602082019050818103600083015261307b8161303f565b9050919050565b600061308d82611ec0565b91507fffffffffffffffffffffffffffffffffffffffffffffffffffffffffffffffff82036130bf576130be612903565b5b600182019050919050565b7f4e487b7100000000000000000000000000000000000000000000000000000000600052601260045260246000fd5b600061310482611ec0565b915061310f83611ec0565b92508261311f5761311e6130ca565b5b828204905092915050565b600061313582611ec0565b915061314083611ec0565b9250826131505761314f6130ca565b5b828206905092915050565b7f4e487b7100000000000000000000000000000000000000000000000000000000600052603260045260246000fd5b600081519050919050565b600082825260208201905092915050565b60006131b18261318a565b6131bb8185613195565b93506131cb818560208601611f69565b6131d481611f9c565b840191505092915050565b60006080820190506131f4600083018761203a565b613201602083018661203a565b61320e6040830185611f23565b818103606083015261322081846131a6565b905095945050505050565b60008151905061323a81611e31565b92915050565b60006020828403121561325657613255611dfb565b5b60006132648482850161322b565b9150509291505056fea26469706673582212201bcca4312ea9d0ad72e0dafdb054481f539dfe8846dd3d28cb71526fde6decab64736f6c634300080d0033",
  "immutableReferences": {},
  "source": "// SPDX-License-Identifier: MIT\npragma solidity >=0.4.22 <0.9.0;\n\nimport \"@openzeppelin/contracts/token/ERC721/ERC721.sol\";\n\ncontract StarNotary is ERC721 {\n    // Star data\n    struct Star {\n        string name;\n    }\n\n    // mapping the Star with the Owner Address\n    mapping(uint256 => Star) public tokenIdToStarInfo;\n\n    // mapping the TokenId and price\n    mapping(uint256 => uint256) public starsForSale;\n\n    // Initializes the contract by setting a `name` and a `symbol` to the token collection.\n    constructor(string memory name_, string memory symbol_)\n        ERC721(name_, symbol_)\n    {}\n\n    // Create Star using the Struct\n    function createStar(string memory _name, uint256 _tokenId) public {\n        Star memory newStar = Star(_name);\n        tokenIdToStarInfo[_tokenId] = newStar;\n        _mint(msg.sender, _tokenId);\n    }\n\n    // Putting an Star for sale (Adding the star tokenid into the mapping starsForSale, first verify that the sender is the owner)\n    function putStarUpForSale(uint256 _tokenId, uint256 _price) public {\n        require(\n            ownerOf(_tokenId) == msg.sender,\n            \"You can't sell the Star you don't own\"\n        );\n        starsForSale[_tokenId] = _price;\n    }\n\n    // Buy an Star (Removing the star tokenid from the mapping starsForSale, first verify that the star is up for sale)\n    function buyStar(uint256 _tokenId) public payable {\n        require(starsForSale[_tokenId] > 0, \"The Star should be up for sale\");\n\n        uint256 starCost = starsForSale[_tokenId];\n        require(msg.value > starCost, \"You need to have enough Ether\");\n\n        address ownerAddress = ownerOf(_tokenId);\n        _transfer(ownerAddress, msg.sender, _tokenId);\n        payable(ownerAddress).transfer(starCost);\n\n        if (msg.value > starCost) {\n            payable(msg.sender).transfer(msg.value - starCost);\n        }\n\n        delete (starsForSale[_tokenId]);\n    }\n\n    // Returns the Star name with given tokenId\n    function lookUptokenIdToStarInfo(uint256 _tokenId)\n        public\n        view\n        returns (string memory)\n    {\n        return tokenIdToStarInfo[_tokenId].name;\n    }\n\n    // Exchange stars between two addresses (first verify that the sender is the owner of at least one star)\n    function exchangeStars(uint256 _tokenId1, uint256 _tokenId2) public {\n        address owner1 = ownerOf(_tokenId1);\n        address owner2 = ownerOf(_tokenId2);\n\n        require(\n            owner1 == msg.sender || owner2 == msg.sender,\n            \"You can't exchange the Star you don't owned\"\n        );\n\n        _transfer(owner1, owner2, _tokenId1);\n        _transfer(owner2, owner1, _tokenId2);\n    }\n\n    // Transfers the ownership of a star to a new address\n    function transferStar(address _to, uint256 _tokenId) public {\n        require(\n            ownerOf(_tokenId) == msg.sender,\n            \"You can't transfer the Star you don't own\"\n        );\n\n        transferFrom(msg.sender, _to, _tokenId);\n    }\n}\n",
  "sourcePath": "/home/devashishdxt/workspace/udacity-blockchain-nd/project-2-self/contracts/StarNotary.sol",
  "compiler": {
    "name": "solc",
    "version": "0.8.13+commit.abaa5c0e.Emscripten.clang"
  },
  "schemaVersion": "3.4.7",
  "updatedAt": "2022-05-04T06:57:37.494Z",
  "networkType": "ethereum",
  "devdoc": {
    "kind": "dev",
    "methods": {
      "approve(address,uint256)": {
        "details": "See {IERC721-approve}."
      },
      "balanceOf(address)": {
        "details": "See {IERC721-balanceOf}."
      },
      "getApproved(uint256)": {
        "details": "See {IERC721-getApproved}."
      },
      "isApprovedForAll(address,address)": {
        "details": "See {IERC721-isApprovedForAll}."
      },
      "name()": {
        "details": "See {IERC721Metadata-name}."
      },
      "ownerOf(uint256)": {
        "details": "See {IERC721-ownerOf}."
      },
      "safeTransferFrom(address,address,uint256)": {
        "details": "See {IERC721-safeTransferFrom}."
      },
      "safeTransferFrom(address,address,uint256,bytes)": {
        "details": "See {IERC721-safeTransferFrom}."
      },
      "setApprovalForAll(address,bool)": {
        "details": "See {IERC721-setApprovalForAll}."
      },
      "supportsInterface(bytes4)": {
        "details": "See {IERC165-supportsInterface}."
      },
      "symbol()": {
        "details": "See {IERC721Metadata-symbol}."
      },
      "tokenURI(uint256)": {
        "details": "See {IERC721Metadata-tokenURI}."
      },
      "transferFrom(address,address,uint256)": {
        "details": "See {IERC721-transferFrom}."
      }
    },
    "version": 1
  },
  "userdoc": {
    "kind": "user",
    "methods": {},
    "version": 1
  }
}